:100000000C9410060C9422060C9422060C942206E2
:100010000C9422060C9422060C9422060C942206C0
:100020000C9422060C9422060C9422060C942206B0
:100030000C9422060C9422060C9422060C942206A0
:100040000C9422060C9422060C9422060C94220690
:100050000C9422060C9422060C9422060C94220680
:100060000C9422060C9422060C9422060C94220670
:100070000C9422060C9422060C9422060C94220660
:100080000C9422060C9422060C9422060C94220650
:100090000C9422060C9422060C9422060C94220640
:1000A0000C9422060C9422060C9422060C94220630
:1000B0000C9422060C9422060C9422060C942C0814
:1000C0000C9422060C9422060C9422060C94220610
:1000D0000C9422060C9422060C9422060C94220600
:1000E0000C9422060C9422060C9422060C942206F0
:1000F0000C9422060C9422060C9422060C942206E0
:100100000C9422060C9422060C9422060C942206CF
:100110000C9422060C9422060C9422060C940408DB
:100120000C9422060C9422060C9422060C942206AF
:100130000C9422060C94FF0A0C9422060C942206BE
:100140000C9422060C9422060C9422060C9422068F
:100150000C9422060C9422060C9422060C9422067F
:100160000C94B0070C94DA070C9422060C94220627
:100170000C9422060C9422060C9422060C9422065F
:100180000C9422060C9422060C9422060C9422064F
:100190000C9422060C9422060C9422060C9422063F
:1001A0000C9422060C9422060C9422060C9422062F
:1001B0000C9422060C9422060C9422060C9422061F
:1001C0000C9422060C9422060020103008281838BF
:1001D000404040404040401010202010102020405F
:1001E00020101020201010202C0A2C0A2C0A2C0A77
:1001F0002C0A2C0A2C0A280A280A2A0A2A0A280A5F
:10020000280A2A0A2A0A2C0A2A0A280A280A2A0A52
:100210002A0A280A280A2A0A00000100010001000F
:1002200001000100010001000100010001000100C6
:1002300002000200020002000200020002000200AE
:10024000020002000200020002000200020002009E
:100250000300030003000300030003000300030086
:100260000300030004000400040004000400040070
:100270000400040005000500050005000500050058
:10028000060006000600060006000700070007003B
:10029000070007000800080008000900090009001D
:1002A00009000A000A000A000B000B000B000C00FA
:1002B0000C000D000D000D000E000E000F000F00D1
:1002C00010001000110011001200130013001400A0
:1002D00015001500160017001700180019001A0065
:1002E0001B001B001C001D001E001F002000210021
:1002F0002300240025002600270029002A002B00C7
:100300002D002E003000310033003500360038005B
:100310003A003C003E0040004200440047004900D3
:100320004B004E0050005300560059005B005F0028
:100330006200650068006C006F00730077007B004E
:100340007F00830087008C00900095009A009F003A
:10035000A400AA00AF00B500BB00C100C800CE00D9
:10036000D500DC00E300EB00F200FA0003010B0112
:1003700014011D01270130013A01450150015B01C3
:10038000660172017E018B019801A501B301C201D2
:10039000D001E001F0010002110222023402470202
:1003A0005A026E0283029802AE02C402DC02F40218
:1003B0000D03270341035D0379039703B503D403BA
:1003C000F503160439045C048104A704CF04F70480
:1003D00021054D057A05A805D80509063C067106D4
:1003E000A706DF061A0756079407D40716085A0807
:1003F000A108EA0835098309D309260A7C0AD50A27
:10040000300B8F0BF10B560CBE0C2A0D990D0C0EF8
:10041000830EFD0E7C0FFF0F00010203050607048B
:10042000000017252E363C4146494D505356585B27
:100430005D5F6162646667696A6C6D6E6F7172732D
:100440007475767778797A7B7B7C7D7E7F7F8081FF
:1004500081828384848585868787888889898A8B39
:100460008B8C8C8D8D8E8E8F8F909090919192929F
:100470009393939494959595969697979798989823
:100480009999999A9A9A9B9B9B9C9C9C9D9D9D9EB9
:100490009E9E9E9F9F9FA0A0A0A0A1A1A1A1A2A25D
:1004A000A2A3A3A3A3A4A4A4A4A5A5A5A5A6A6A608
:1004B000A6A6A7A7A7A7A8A8A8A8A8A9A9A9A9AABE
:1004C000AAAAAAAAABABABABABACACACACACADAD77
:1004D000ADADADADAEAEAEAEAEAFAFAFAFAFAFB038
:1004E000B0B0B0B0B1B1B1B1B1B1B2B2B2B2B2B2FA
:1004F000B3B3B3B3B3B3B3B4B4B4B4B4B4B5B5B5C0
:10050000B5B5B5B5B6B6B6B6B6B6B6B7B7B7B7B78A
:10051000B7B7B8B8B8B8B8B8B8B9B9B9B9B9B9B956
:10052000B9BABABABABABABABABBBBBBBBBBBBBB25
:10053000BBBCBCBCBCBCBCBCBCBDBDBDBDBDBDBDF5
:10054000BDBEBEBEBEBEBEBEBEBEBFBFBFBFBFBFC6
:10055000BFBFBFC0C0C0C0C0C0C0C0C0C1C1C1C19A
:10056000C1C1C1C1C1C1C2C2C2C2C2C2C2C2C2C271
:10057000C3C3C3C3C3C3C3C3C3C3C4C4C4C4C4C445
:10058000C4C4C4C4C4C5C5C5C5C5C5C5C5C5C5C61F
:10059000C6C6C6C6C6C6C6C6C6C6C7C7C7C7C7C7F5
:1005A000C7C7C7C7C7C7C8C8C8C8C8C8C8C8C8C8D1
:1005B000C8C8C9C9C9C9C9C9C9C9C9C9C9C9CACAAB
:1005C000CACACACACACACACACACACACBCBCBCBCB86
:1005D000CBCBCBCBCBCBCBCCCCCCCCCCCCCCCCCC62
:1005E000CCCCCCCCCCCDCDCDCDCDCDCDCDCDCDCD40
:1005F000CDCDCECECECECECECECECECECECECECE1D
:10060000CECFCFCFCFCFCFCFCFCFCFCFCFCFCFD0FA
:10061000D0D0D0D0D0D0D0D0D0D0D0D0D0D0D1D1D8
:10062000D1D1D1D1D1D1D1D1D1D1D1D1D1D1D2D2B8
:10063000D2D2D2D2D2D2D2D2D2D2D2D2D2D2D3D398
:10064000D3D3D3D3D3D3D3D3D3D3D3D3D3D3D4D478
:10065000D4D4D4D4D4D4D4D4D4D4D4D4D4D4D4D559
:10066000D5D5D5D5D5D5D5D5D5D5D5D5D5D5D5D53A
:10067000D6D6D6D6D6D6D6D6D6D6D6D6D6D6D6D61A
:10068000D6D6D7D7D7D7D7D7D7D7D7D7D7D7D7D7FC
:10069000D7D7D7D7D7D8D8D8D8D8D8D8D8D8D8D8DF
:1006A000D8D8D8D8D8D8D8D8D9D9D9D9D9D9D9D9C2
:1006B000D9D9D9D9D9D9D9D9D9D9D9D9DADADADAA6
:1006C000DADADADADADADADADADADADADADADADA8A
:1006D000DBDBDBDBDBDBDBDBDBDBDBDBDBDBDBDB6A
:1006E000DBDBDBDBDBDCDCDCDCDCDCDCDCDCDCDC4F
:1006F000DCDCDCDCDCDCDCDCDCDCDDDDDDDDDDDD34
:10070000DDDDDDDDDDDDDDDDDDDDDDDDDDDDDDDD19
:10071000DEDEDEDEDEDEDEDEDEDEDEDEDEDEDEDEF9
:10072000DEDEDEDEDEDEDEDFDFDFDFDFDFDFDFDFE0
:10073000DFDFDFDFDFDFDFDFDFDFDFDFDFDFDFE0C8
:10074000E0E0E0E0E0E0E0E0E0E0E0E0E0E0E0E0A9
:10075000E0E0E0E0E0E0E0E1E1E1E1E1E1E1E1E190
:10076000E1E1E1E1E1E1E1E1E1E1E1E1E1E1E1E179
:10077000E2E2E2E2E2E2E2E2E2E2E2E2E2E2E2E259
:10078000E2E2E2E2E2E2E2E2E2E2E3E3E3E3E3E343
:10079000E3E3E3E3E3E3E3E3E3E3E3E3E3E3E3E329
:1007A000E3E3E3E3E4E4E4E4E4E4E4E4E4E4E4E40D
:1007B000E4E4E4E4E4E4E4E4E4E4E4E4E4E4E4E5F8
:1007C000E5E5E5E5E5E5E5E5E5E5E5E5E5E5E5E5D9
:1007D000E5E5E5E5E5E5E5E5E5E5E5E5E6E6E6E6C5
:1007E000E6E6E6E6E6E6E6E6E6E6E6E6E6E6E6E6A9
:1007F000E6E6E6E6E6E6E6E6E7E7E7E7E7E7E7E791
:10080000E7E7E7E7E7E7E7E7E7E7E7E7E7E7E7E778
:10081000E7E7E7E7E7E7E8E8E8E8E8E8E8E8E8E85E
:10082000E8E8E8E8E8E8E8E8E8E8E8E8E8E8E8E848
:10083000E8E8E8E8E8E9E9E9E9E9E9E9E9E9E9E92D
:10084000E9E9E9E9E9E9E9E9E9E9E9E9E9E9E9E918
:10085000E9E9E9E9E9EAEAEAEAEAEAEAEAEAEAEAFD
:10086000EAEAEAEAEAEAEAEAEAEAEAEAEAEAEAEAE8
:10087000EAEAEAEAEAEBEBEBEBEBEBEBEBEBEBEBCD
:10088000EBEBEBEBEBEBEBEBEBEBEBEBEBEBEBEBB8
:10089000EBEBEBEBEBEBEBECECECECECECECECEC9F
:1008A000ECECECECECECECECECECECECECECECEC88
:1008B000ECECECECECECECECECECEDEDEDEDEDED72
:1008C000EDEDEDEDEDEDEDEDEDEDEDEDEDEDEDED58
:1008D000EDEDEDEDEDEDEDEDEDEDEDEDEDEDEEEE46
:1008E000EEEEEEEEEEEEEEEEEEEEEEEEEEEEEEEE28
:1008F000EEEEEEEEEEEEEEEEEEEEEEEEEEEEEEEE18
:10090000EEEEEFEFEFEFEFEFEFEFEFEFEFEFEFEFF9
:10091000EFEFEFEFEFEFEFEFEFEFEFEFEFEFEFEFE7
:10092000EFEFEFEFEFEFEFEFF0F0F0F0F0F0F0F0CF
:10093000F0F0F0F0F0F0F0F0F0F0F0F0F0F0F0F0B7
:10094000F0F0F0F0F0F0F0F0F0F0F0F0F0F0F0F1A6
:10095000F1F1F1F1F1F1F1F1F1F1F1F1F1F1F1F187
:10096000F1F1F1F1F1F1F1F1F1F1F1F1F1F1F1F177
:10097000F1F1F1F1F1F1F1F1F2F2F2F2F2F2F2F25F
:10098000F2F2F2F2F2F2F2F2F2F2F2F2F2F2F2F247
:10099000F2F2F2F2F2F2F2F2F2F2F2F2F2F2F2F237
:1009A000F2F3F3F3F3F3F3F3F3F3F3F3F3F3F3F318
:1009B000F3F3F3F3F3F3F3F3F3F3F3F3F3F3F3F307
:1009C000F3F3F3F3F3F3F3F3F3F3F3F3F4F4F4F4F3
:1009D000F4F4F4F4F4F4F4F4F4F4F4F4F4F4F4F4D7
:1009E000F4F4F4F4F4F4F4F4F4F4F4F4F4F4F4F4C7
:1009F000F4F4F4F4F4F4F4F4F5F5F5F5F5F5F5F5AF
:100A0000F5F5F5F5F5F5F5F5F5F5F5F5F5F5F5F596
:100A1000F5F5F5F5F5F5F5F5F5F5F5F5F5F5F5F586
:100A2000F5F5F5F5F5F6F6F6F6F6F6F6F6F6F6F66B
:100A3000F6F6F6F6F6F6F6F6F6F6F6F6F6F6F6F656
:100A4000F6F6F6F6F6F6F6F6F6F6F6F6F6F6F6F646
:100A5000F6F6F6F6F7F7F7F7F7F7F7F7F7F7F7F72A
:100A6000F7F7F7F7F7F7F7F7F7F7F7F7F7F7F7F716
:100A7000F7F7F7F7F7F7F7F7F7F7F7F7F7F7F7F706
:100A8000F7F7F7F7F8F8F8F8F8F8F8F8F8F8F8F8EA
:100A9000F8F8F8F8F8F8F8F8F8F8F8F8F8F8F8F8D6
:100AA000F8F8F8F8F8F8F8F8F8F8F8F8F8F8F8F8C6
:100AB000F8F8F8F8F8F8F9F9F9F9F9F9F9F9F9F9AC
:100AC000F9F9F9F9F9F9F9F9F9F9F9F9F9F9F9F996
:100AD000F9F9F9F9F9F9F9F9F9F9F9F9F9F9F9F986
:100AE000F9F9F9F9F9F9F9F9F9FAFAFAFAFAFAFA6F
:100AF000FAFAFAFAFAFAFAFAFAFAFAFAFAFAFAFA56
:100B0000FAFAFAFAFAFAFAFAFAFAFAFAFAFAFAFA45
:100B1000FAFAFAFAFAFAFAFAFAFAFAFAFAFAFBFB33
:100B2000FBFBFBFBFBFBFBFBFBFBFBFBFBFBFBFB15
:100B3000FBFBFBFBFBFBFBFBFBFBFBFBFBFBFBFB05
:100B4000FBFBFBFBFBFBFBFBFBFBFBFBFBFBFBFBF5
:100B5000FBFBFBFBFCFCFCFCFCFCFCFCFCFCFCFCD9
:100B6000FCFCFCFCFCFCFCFCFCFCFCFCFCFCFCFCC5
:100B7000FCFCFCFCFCFCFCFCFCFCFCFCFCFCFCFCB5
:100B8000FCFCFCFCFCFCFCFCFCFCFCFCFDFDFDFDA1
:100B9000FDFDFDFDFDFDFDFDFDFDFDFDFDFDFDFD85
:100BA000FDFDFDFDFDFDFDFDFDFDFDFDFDFDFDFD75
:100BB000FDFDFDFDFDFDFDFDFDFDFDFDFDFDFDFD65
:100BC000FDFDFDFDFDFDFEFEFEFEFEFEFEFEFEFE4B
:100BD000FEFEFEFEFEFEFEFEFEFEFEFEFEFEFEFE35
:100BE000FEFEFEFEFEFEFEFEFEFEFEFEFEFEFEFE25
:100BF000FEFEFEFEFEFEFEFEFEFEFEFEFEFEFEFE15
:100C0000FEFFFFFFFFFFFFFFFFFFFFFFFFFFFFFFF5
:100C1000FFFFFFFFFFFFFFFFFFFFFFFFFFFFFFFFE4
:100C200011241FBECFEFDFE2DEBFCDBF20E2A0E088
:100C3000B0E201C01D92AB34B207E1F70E94940606
:100C40000C94290B0C9400008091500082608093DA
:100C500050008091510081FFFCCF88ED84BF81E07E
:100C600080934000809150008E7F809350000895C3
:100C7000E0E6F6E088E0818384E0828341E060EA98
:100C800079E08FE190E20E946B0AE0911F20F091E1
:100C9000202083E0858383818F7C80618383A0EA29
:100CA000B9E083E316968C93169717961C9284816D
:100CB00080618483848188608483089588E3E0EA86
:100CC000F6E0818387E0E0E8F6E08183E0E0FAE0A7
:100CD00083E781838FEF9FE086A397A381E08683DC
:100CE0000895CF93DF93C82FD62F67FF0AC06038CF
:100CF00011F0D19501C0DFE7C63059F0C43039F0AA
:100D000004C0863021F0843021F063E003C062E04B
:100D100001C061E08C2F0E94260A6D2F660F8C2F78
:100D2000DF91CF910C944E0ACF93DF93CDB7DEB70E
:100D30002897CDBFDEBF0E9424060E9438060E947D
:100D4000370A0E941A090E945E061092200A109229
:100D5000210A11E01093000A8091A2008160809323
:100D6000A2007894109207208FEF809308201092B1
:100D7000092010920A2080930B2010920C201092D0
:100D80000D2080930E2010920F201092102080933F
:100D90001120109212201092132080931420109290
:100DA0001520109216208093172010921820109270
:100DB000192080931A2010921B2010921C208093DF
:100DC0001D2010921E2081E00E94610A81E00E9495
:100DD000610A60E086E00E94710660E084E00E94A3
:100DE000710682EF809361061093620688E080931B
:100DF0008106809385060E94F00A84E00E94ED0A35
:100E0000E12C10E0F12C0FEF30E4D32ECC24C3946E
:100E100047E0B42E08C001E006C002E004C003E0D1
:100E200002C0F12C0FEFD092A106D092A6060E942C
:100E300088098111F8CF80E090E00E942C098FE1B1
:100E400090E20E94A70A882371F38FE190E20E944A
:100E5000AF0A0F3F09F04BC020EFE22EE822182F17
:100E60001F7080E4E81210C01130A9F2123099F21C
:100E7000133099F21E3011F481E003C01F3099F64F
:100E800080E00E94610ACFCFE11008C0183010F452
:100E900040E00AC01F3039F640E00DC080E1E812A2
:100EA0000FC0183020F441E061E0812F06C01F30F0
:100EB00009F0B9CF41E068E080E00E944809B3CF73
:100EC00080E5E812B0CF1F3029F41092000AB092EA
:100ED0008606A9CF1E3039F41092200A1092210AFA
:100EE000C092000AA0CF183008F499CF9CCFE4E05C
:100EF000F0E0EC0FFD1FEF0DF11D8083015011F0AC
:100F0000F39491CF80E4E81215C0113019F46C818C
:100F100086E00DC0123011F46C8108C0133009F066
:100F200080CF6C8186E00E9471066D8184E00E9412
:100F3000710677CF80E5E81274CF183008F071CFD2
:100F4000212F30E08C81F901EE0FFF1FE20FF31F1C
:100F5000E95FFF4D80838D8181838E81828361CFA4
:100F60001F920F920FB60F9211240BB60F922F9370
:100F70003F934F935F936F937F938F939F93AF9321
:100F8000BF93EF93FF938FE190E20E94BB0AFF9122
:100F9000EF91BF91AF919F918F917F916F915F91F1
:100FA0004F913F912F910F900BBE0F900FBE0F905E
:100FB0001F9018951F920F920FB60F9211240BB627
:100FC0000F922F933F934F935F936F937F938F93E2
:100FD0009F93AF93BF93EF93FF938FE190E20E94B3
:100FE000D00AFF91EF91BF91AF919F918F917F9127
:100FF0006F915F914F913F912F910F900BBE0F908A
:101000000FBE0F901F9018951F920F920FB60F9260
:1010100011240BB60F922F933F934F935F936F93CF
:101020007F938F939F93AF93BF93EF93FF930E9410
:101030008F09FF91EF91BF91AF919F918F917F9118
:101040006F915F914F913F912F910F900BBE0F9039
:101050000FBE0F901F9018951F920F920FB60F9210
:1010600011240BB60F922F933F934F935F936F937F
:101070007F938F939F93AF93BF93CF93DF93EF9320
:10108000FF9380910020863020F48F5F80930020B2
:10109000B1C01092002083E08093010A87E0809322
:1010A00086061092000A1092000A8093860688E352
:1010B0008093A60620910120822F90E0FC01E85346
:1010C000FE4F459154914093A506AC01440F551F26
:1010D000DA01A80FB91FA95FBF4DEC91F0E0EE0F48
:1010E000FF1FE85EFD4F65917491672BD1F0FA0107
:1010F000E85FFD4F45915491C42FD52FEC91F0E05E
:10110000EE0FFF1FE85EFD4F4591549148835983D0
:101110003091010AFC01E052FE4FE491E32BE09391
:10112000010AAC01440F551FDA01A80FB91FA95FCE
:10113000BF4D1296EC911297F0E0EE0FFF1FE85EA4
:10114000FD4F65917491672BD9F0FA01E850FE4F7D
:1011500045915491C42FD52F1296EC91F0E0EE0FEB
:10116000FF1FE85EFD4F45915491488359833091AC
:10117000010AFC01E852FE4FE491E32BE093010ADF
:10118000AC01440F551FDA01A80FB91FA95FBF4D6D
:101190001196EC911197F0E0EE0FFF1FE85EFD4F06
:1011A00065917491672BD9F0FA01E851FE4F459192
:1011B0005491C42FD52F1196EC91F0E0EE0FFF1F44
:1011C000E85EFD4F45915491488359833091010A5F
:1011D000FC01E053FE4F8491832B8093010A10920F
:1011E000200A1092210A81E08093000A2F5F277065
:1011F00020930120FF91EF91DF91CF91BF91AF91AB
:101200009F918F917F916F915F914F913F912F911E
:101210000F900BBE0F900FBE0F901F901895E0E03F
:10122000F2E081E0808390E1918397E094831282E1
:1012300082A308950E940F0987E0E0EAF6E0818327
:10124000089528E0829FC00111248160E0E0F2E06F
:1012500081A382E880A30895A0EAB6E097E01696FD
:101260009C931697E82FF0E0E85EFB4F85919491F0
:1012700015968C930895CF93C82F611102C08F5F8C
:1012800087700E942C098C2F885FCF910C942109C4
:10129000CF93DF93C82FD62F6130B9F4442371F078
:1012A00083E080933E20109203208C2F8F5F877005
:1012B0000E942C0980E18093022020C060933E2090
:1012C000609302200E942C0919C06230B8F04423B8
:1012D00069F084E080933E20109203208C2F8F5F72
:1012E00087700E942C09D295D07F06C082E080933F
:1012F0003E208C2F0E942C09D09302201092472070
:10130000C0934A208C2F885FDF91CF910C942109E4
:101310009091022081E0911101C080E008958091B8
:10132000022081508093022080913E20823021F063
:1013300080913E208130C1F4609124027091250299
:1013400093E0769567959A95E1F78FE190E20E9498
:101350007E0A80914A208F5F80934A2080910220EC
:10136000882309F472C06CC080913E20843029F03B
:1013700080913E20833009F068C08091032088234B
:1013800009F453C020912402309125028091482015
:10139000909149202817390738F4E0914720F0E070
:1013A000E15CFF4D108214C0E0912402F09125020F
:1013B0008091482090914920E81BF90BE05EFB4F9B
:1013C00085919491E0914720F0E0E15CFF4D8083AE
:1013D000809147208F5F883019F0809347201BC091
:1013E00010924720EFE3F0E260E070E08191680F37
:1013F000711D80E2E734F807C9F783E076956795B9
:101400008A95E1F78FE190E20E947E0A80914A205E
:101410008F5F80934A2010920320809102208823BE
:10142000A1F080914A2060E00EC081E0809303200B
:101430008091240290912502809348209093492026
:1014400080914A2061E00C943B09089523E030E04C
:10145000082E01C0220F0A94EAF7E0E8F6E026839E
:10146000082E01C0660F0A94EAF76583089580EF9D
:10147000E0E8F6E0818380E4E0E0F6E081838CE060
:10148000E0E4F6E08183E0E0F8E081E0808383EC53
:1014900081838FEF90E086A397A308956B3A08F0BD
:1014A0006AEA863031F470E060932C0870932D085E
:1014B0000895843029F470E060932E0870932F080B
:1014C0000895882321F080E480930506089580E440
:1014D000809306060895FC01608371834283148E15
:1014E000138E168E158E0895FC01258D968D2F5F17
:1014F000277081E0291301C080E008950F931F93A6
:10150000CF93DF931F92CDB7DEB78C0169830E9422
:10151000740A69818823A9F0D8015D969C915D9732
:10152000F801E90FF11D638B9F5F9770F801958FAC
:101530000190F081E02D93819C7F12962C91922B4B
:1015400093830F90DF91CF911F910F910895FC012C
:10155000238D948D81E0291301C080E00895FC0162
:10156000848DDF01A80FB11D13968C91948D9F5F20
:101570009F70948F0895FC01838D8F5F8F70248DF1
:10158000A081B1819C91821749F0238DDF01A20FC8
:10159000B11D13969C93838F81E0089580E0089598
:1015A000CF93DF93FC01868D958DA081B181981337
:1015B00007C013968C9113978C7F13968C930AC057
:1015C000868DEF01C80FD11D8B898C93868D8F5F1F
:1015D0008770868FDF91CF910895809304200895BE
:1015E000E0E8F1E088E6808380ED8183E0E0FBE0E5
:1015F00088E0808389E2838380E1818308951F925C
:101600000F920FB60F9211242F933F938F939F93B6
:1016100080910009807F8093000980910C0B80FFEE
:1016200003C08FEF9FEF08C02091380B3091390B2A
:10163000932F80E0820F911D8093052090930620C8
:101640009F918F913F912F910F900FBE0F901F9000
:061650001895F894FFCF8D
:00000001FF
