S0120000424545505F584D6567612E73726563C5
S11300000C94EC010C940B020C940B020C940B0258
S11300100C940B020C940B020C940B020C940B0228
S11300200C940B020C940B020C940B020C940B0218
S11300300C940B020C940B020C940B020C940B0208
S11300400C940B020C940B020C940B020C940B02F8
S11300500C940B020C940B020C940B020C940B02E8
S11300600C940B020C940B020C940B020C940B02D8
S11300700C940B020C940B020C940B020C940B02C8
S11300800C940B020C940B020C940B020C940B02B8
S11300900C940B020C940B020C940B020C940B02A8
S11300A00C940B020C940B020C940B020C940B0298
S11300B00C940B020C940B020C940B020C94A004F1
S11300C00C940B020C940B020C940B020C940B0278
S11300D00C940B020C940B020C940B020C940B0268
S11300E00C940B020C940B020C940B020C940B0258
S11300F00C940B020C940B020C940B020C940B0248
S11301000C940B020C940B020C940B020C940B0237
S11301100C940B020C940B020C940B020C945604DA
S11301200C940B020C940B020C940B020C940B0217
S11301300C940B020C940B020C940B020C940B0207
S11301400C940B020C940B020C940B020C940B02F7
S11301500C940B020C940B020C940B020C940B02E7
S11301600C9402040C942C040C940B020C940B02BB
S11301700C940B020C940B020C940B020C940B02C7
S11301800C940B020C940B020C940B020C940B02B7
S11301900C940B020C940B020C940B020C940B02A7
S11301A00C940B020C940B020C940B020C940B0297
S11301B00C940B020C940B020C940B020C940B0287
S11301C00C940B020C940B020001020305060704B5
S11301D00020103008281838000001000100010038
S11301E00100010001000100010001000100010003
S11301F002000200020002000200020002000200EB
S113020002000200020002000200020002000200DA
S113021003000300030003000300030003000300C2
S113022003000300040004000400040004000400AC
S11302300400040005000500050005000500050094
S11302400600060006000600060007000700070077
S11302500700070008000800080009000900090059
S113026009000A000A000A000B000B000B000C0036
S11302700C000D000D000D000E000E000F000F000D
S113028010001000110011001200130013001400DC
S113029015001500160017001700180019001A00A1
S11302A01B001B001C001D001E001F00200021005D
S11302B02300240025002600270029002A002B0003
S11302C02D002E0030003100330035003600380098
S11302D03A003C003E004000420044004700490010
S11302E04B004E0050005300560059005B005F0065
S11302F06200650068006C006F00730077007B008B
S11303007F00830087008C00900095009A009F0076
S1130310A400AA00AF00B500BB00C100C800CE0015
S1130320D500DC00E300EB00F200FA0003010B014E
S113033014011D01270130013A01450150015B01FF
S1130340660172017E018B019801A501B301C2010E
S1130350D001E001F001000211022202340247023E
S11303605A026E0283029802AE02C402DC02F40254
S11303700D03270341035D0379039703B503D403F6
S1130380F503160439045C048104A704CF04F704BC
S113039021054D057A05A805D80509063C06710610
S11303A0A706DF061A0756079407D40716085A0843
S11303B0A108EA0835098309D309260A7C0AD50A63
S11303C0300B8F0BF10B560CBE0C2A0D990D0C0E35
S11303D0830EFD0E7C0FFF0F11241FBECFEFDFE253
S11303E0DEBFCDBF10E2A0E0B0E2ECEFFBE000E046
S11303F00BBF02C007900D92A630B107D9F720E2D7
S1130400A6E0B0E201C01D92A933B207E1F70E9451
S1130410B0020C94FC050C940000E0E5F0E080814F
S113042082608083818181FFFDCF88ED84BF81E07C
S113043080934000E0E5F0E080818E7F8083089522
S1130440CF93DF93E0E6F6E088E0818384E0828363
S113045041E060EA79E08AE290E20E946805C09196
S11304602A20D0912B2083E08D838B818F7C806127
S11304708B838091012090910220A0910320B09160
S11304800420880F991FAA1FBB1F880F991FAA1F3A
S1130490BB1F9C01AD01220F331F441F551F220FA8
S11304A0331F441F551F60E078E488EE91E00E94FA
S11304B0DA05822F8150E0EAF9E08683DA01C90186
S11304C00197A109B109892F9A2FAB2FBB278783E5
S11304D08C8180618C838C8188608C83DF91CF9147
S11304E00895E0E0F2E081E0808390E1918395E07B
S11304F09483128282A3089528E0829FC00111246C
S11305008160E0E0F2E081A382E880A30895CF93C4
S1130510DF93C82FD62F66235CF4603811F0D19591
S113052001C0DFE7C43051F0C63051F063E00DC0C4
S1130530843041F0863041F063E007C061E005C0DB
S113054062E003C062E001C061E08C2F0E941E05DE
S11305506D2F660F8C2F0E944905DF91CF9108956E
S1130560CF93DF93CDB7DEB72897CDBFDEBF0E9410
S11305700D020E9420020E9432050E947102A0EA2C
S1130580B6E088E311968C931197E0E8F6E027E053
S1130590218380898064808B81898064818B8289B6
S11305A08064828BE0E0FAE083E781838FEF9FE051
S11305B086A397A381E0868310A211A28083E0EA38
S11305C0F0E08281816082837894109209201092F5
S11305D00A2010920B2010920C208FEA80930D2099
S11305E010920E2080930F20109210201092112050
S11305F010921220109213201092142010921520A1
S1130600109216201092172080931820809319209E
S113061010921A2080931B2010921C2080931D207E
S113062010921E2010921F201092202011962C93BD
S11306301197EAECF1E08591949115968C9380E002
S11306400E945C0562E386E00E9487026EEC84E00F
S11306500E94870200E0B12CA12C1FEFDD24DA9464
S11306600F2EE12CFAE0FF2EF02DCC24C3940F2E94
S1130670F0E86F2EF6E07F2EF02D0F2EF7E08F2E90
S1130680F02D6894992493F810C01C2D0EC01C2DD5
S11306900CC012E00AC013E008C0A12C1D2D05C037
S11306A0A12C1D2D02C0A12C1D2D8091062081118D
S11306B0FCCF8AE290E20E9497058823B1F38AE294
S11306C090E20E949F051F3F09F053C0082F007F4E
S11306D00F2EFFE0BF2EF02DB8220034B9F481E0D4
S11306E0B81699F2E2E0BE1691F2F3E0BF1689F271
S11306F08EE0B81204C08C2D0E945C05D6CFEFE0CA
S1130700BE12D3CF80E00E945C05CFCF011119C087
S1130710F7E0FB1540F0C0920620C09200208B2D1C
S11307200E947C02C2CF8FE0B812BFCF9092062005
S1130730C092002010922120809121200E947C02EE
S1130740B4CF003509F0B1CFEFE0BE1205C0F70118
S11307501082F3018682A9CFFEE0BF1205C0F70123
S113076010A211A2C082A1CFF7E0FB1508F093CF2D
S11307709CCFE4E0F0E0EC0FFD1FEA0DF11D808357
S1130780115011F0A39491CF003411F581E0B81207
S113079007C06C8184E00E948702A12C1D2D85CFA7
S11307A0E2E0BE1207C06C8186E00E948702A12CA1
S11307B01D2D7BCFF3E0BF1270CF6C8184E00E94CB
S11307C087026D8186E00E948702A12C1D2D6DCFCA
S11307D0003509F065CF87E08B1508F464CF2B2D25
S11307E030E08C81F901EE0FFF1F2E0F3F1FF9013E
S11307F0E75FFF4D80838D8181838E818283A12C6D
S11308001D2D53CF1F920F920FB60F9211240BB6CA
S11308100F922F933F934F935F936F937F938F9395
S11308209F93AF93BF93EF93FF938AE290E20E946A
S1130830AB05FF91EF91BF91AF919F918F917F9104
S11308406F915F914F913F912F910F900BBE0F903D
S11308500FBE0F901F9018951F920F920FB60F9214
S113086011240BB60F922F933F934F935F936F9383
S11308707F938F939F93AF93BF93EF93FF938AE2FA
S113088090E20E94C005FF91EF91BF91AF919F91BB
S11308908F917F916F915F914F913F912F910F9025
S11308A00BBE0F900FBE0F901F9018951F920F92C2
S11308B00FB60F9211240BB60F922F933F934F93C1
S11308C05F936F937F938F939F93AF93BF93EF93B4
S11308D0FF9380910020882301F1E0E0F2E064A11D
S11308E075A17695679576956795769567958AE26D
S11308F090E20E947B05809121208F5F80932120CC
S113090080910620815080930620809106208823C0
S113091021F0809121200E947C02FF91EF91BF91F0
S1130920AF919F918F917F916F915F914F913F9183
S11309302F910F900BBE0F900FBE0F901F90189524
S11309401F920F920FB60F9211240BB60F922F9392
S11309503F934F938F939F93AF93BF93CF93DF9323
S1130960EF93FF9380910720863020F48F5F80936C
S1130970072052C010920720A0E0BAE01C9287E042
S1130980E0E8F6E086838FE39FE10197F1F700C08A
S1130990000040910820842F90E0EC01CC0FDD1F73
S11309A0C80FD91FC75FDF4DE881F0E0EE0FFF1FCE
S11309B0E852FE4F259134919C962D933C939D973C
S11309C0E981F0E0EE0FFF1FE852FE4F25913491CC
S11309D098962D933C939997EA81F0E0EE0FFF1FD0
S11309E0E852FE4F259134919A962D933C939B9710
S11309F0C0EAD6E028E32E8380539E4FFC01859104
S1130A0094918D8390961D921C92919781E08C9382
S1130A104F5F477040930820FF91EF91DF91CF9192
S1130A20BF91AF919F918F914F913F912F910F90D3
S1130A300BBE0F900FBE0F901F90189523E030E06F
S1130A40082E02C0220F331F0A94E2F7E0E8F6E012
S1130A50268370E09B0102C0220F331F8A95E2F7C0
S1130A602583089580EFE0E8F6E0818380E4E0E008
S1130A70F6E081838CE0E0E4F6E08183E0E0F8E0F6
S1130A8081E0808383EC81838FEF90E086A397A33A
S1130A9008956B3A08F06AEA843031F470E0E0E0DB
S1130AA0F8E066A777A70895863029F470E0E0E0BF
S1130AB0F8E064A775A70895882329F080E4E0E0AE
S1130AC0F6E08583089580E4E0E0F6E08683089507
S1130AD0FC0160837183428314861386168615860F
S1130AE00895FC01258596852F5F237081E02913E5
S1130AF001C080E008951F93CF93DF93EC01162F7C
S1130B000E947105882379F09D85FE01E90FF11D8E
S1130B1017839F5F93709D87E881F98193819C7F00
S1130B202A81922B9383DF91CF911F910895FC0129
S1130B302385948581E0291301C080E00895FC0198
S1130B408485DF01A80FB11D13968C9194859F5F56
S1130B50937094870895FC0183858F5F83709485D7
S1130B60A081B1812C91891749F09385DF01A90FE8
S1130B70B11D13962C93838781E0089580E0089536
S1130B80FC0186859585981307C00190F081E02DBE
S1130B9083818C7F838308958685DF01A80FB11D2F
S1130BA017968C91A081B1818C9386858F5F837019
S1130BB086870895A1E21A2EAA1BBB1BFD010DC056
S1130BC0AA1FBB1FEE1FFF1FA217B307E407F507F9
S1130BD020F0A21BB30BE40BF50B661F771F881FD5
S1130BE0991F1A9469F760957095809590959B016B
S10F0BF0AC01BD01CF010895F894FFCFC3
S1090BFC01802500000049
S9030000FC
