:100000000C94EC010C940B020C940B020C940B025C
:100010000C940B020C940B020C940B020C940B022C
:100020000C940B020C940B020C940B020C940B021C
:100030000C940B020C940B020C940B020C940B020C
:100040000C940B020C940B020C940B020C940B02FC
:100050000C940B020C940B020C940B020C940B02EC
:100060000C940B020C940B020C940B020C940B02DC
:100070000C940B020C940B020C940B020C940B02CC
:100080000C940B020C940B020C940B020C940B02BC
:100090000C940B020C940B020C940B020C940B02AC
:1000A0000C940B020C940B020C940B020C940B029C
:1000B0000C940B020C940B020C940B020C947C021B
:1000C0000C940B020C940B020C940B020C940B027C
:1000D0000C940B020C940B020C940B020C940B026C
:1000E0000C940B020C940B020C940B020C940B025C
:1000F0000C940B020C940B020C940B020C940B024C
:100100000C940B020C940B020C940B020C940B023B
:100110000C940B020C940B020C940B020C94B40480
:100120000C940B020C940B020C940B020C940B021B
:100130000C940B020C940B020C940B020C940B020B
:100140000C940B020C940B020C940B020C940B02FB
:100150000C940B020C940B020C940B020C940B02EB
:100160000C9460040C948A040C940B020C940B0203
:100170000C940B020C940B020C940B020C940B02CB
:100180000C940B020C940B020C940B020C940B02BB
:100190000C940B020C940B020C940B020C940B02AB
:1001A0000C940B020C940B020C940B020C940B029B
:1001B0000C940B020C940B020C940B020C940B028B
:1001C0000C940B020C940B020001020305060704B9
:1001D000002010300828183800000100010001003C
:1001E0000100010001000100010001000100010007
:1001F00002000200020002000200020002000200EF
:1002000002000200020002000200020002000200DE
:1002100003000300030003000300030003000300C6
:1002200003000300040004000400040004000400B0
:100230000400040005000500050005000500050098
:10024000060006000600060006000700070007007B
:10025000070007000800080008000900090009005D
:1002600009000A000A000A000B000B000B000C003A
:100270000C000D000D000D000E000E000F000F0011
:1002800010001000110011001200130013001400E0
:1002900015001500160017001700180019001A00A5
:1002A0001B001B001C001D001E001F002000210061
:1002B0002300240025002600270029002A002B0007
:1002C0002D002E003000310033003500360038009C
:1002D0003A003C003E004000420044004700490014
:1002E0004B004E0050005300560059005B005F0069
:1002F0006200650068006C006F00730077007B008F
:100300007F00830087008C00900095009A009F007A
:10031000A400AA00AF00B500BB00C100C800CE0019
:10032000D500DC00E300EB00F200FA0003010B0152
:1003300014011D01270130013A01450150015B0103
:10034000660172017E018B019801A501B301C20112
:10035000D001E001F0010002110222023402470242
:100360005A026E0283029802AE02C402DC02F40258
:100370000D03270341035D0379039703B503D403FA
:10038000F503160439045C048104A704CF04F704C0
:1003900021054D057A05A805D80509063C06710614
:1003A000A706DF061A0756079407D40716085A0847
:1003B000A108EA0835098309D309260A7C0AD50A67
:1003C000300B8F0BF10B560CBE0C2A0D990D0C0E39
:1003D000830EFD0E7C0FFF0F11241FBECFEFDFE257
:1003E000DEBFCDBF10E2A0E0B0E2E8E9FBE000E054
:1003F0000BBF02C007900D92A630B107D9F720E2DB
:10040000A6E0B0E201C01D92A733B207E1F70E9457
:1004100028030C94CA050C940000E0E5F0E080810C
:1004200082608083818181FFFDCF88ED84BF81E080
:1004300080934000E0E5F0E080818E7F8083089526
:10044000CF93DF93E0E6F6E088E0818384E0828367
:1004500041E060EA79E088E290E20E943605C091CE
:100460002820D091292083E08D838B818F7C80612F
:100470008B838091012090910220A0910320B09164
:100480000420880F991FAA1FBB1F880F991FAA1F3E
:10049000BB1F9C01AD01220F331F441F551F220FAC
:1004A000331F441F551F60E078E488EE91E00E94FE
:1004B000A805822F8150E0EAF9E08683DA01C901BC
:1004C0000197A109B109892F9A2FAB2FBB278783E9
:1004D0008C8180618C838C8188608C83DF91CF914B
:1004E0000895E0E0F2E081E0808390E1918395E07F
:1004F0009483128282A308951F920F920FB60F92D7
:1005000011240BB60F922F933F934F938F939F938A
:10051000AF93BF93CF93DF93EF93FF938091062028
:10052000863020F48F5F809306204CC01092062006
:10053000A0E0BAE01C9287E0E0E8F6E08683C0EA3B
:10054000D6E088E38E8340910720842F90E0FC0161
:10055000E053FE4F259134912D83EC01CC0FDD1F2C
:10056000C80FD91FC85FDF4DE881F0E0EE0FFF1F15
:10057000E852FE4F859194919C968D939C939D9704
:10058000E981F0E0EE0FFF1FE852FE4F8591949154
:1005900098968D939C939997EA81F0E0EE0FFF1F58
:1005A000E852FE4F859194919A968D939C939B97D8
:1005B00090961D921C92919781E08C934F5F4770AB
:1005C00040930720FF91EF91DF91CF91BF91AF91C1
:1005D0009F918F914F913F912F910F900BBE0F9054
:1005E0000FBE0F901F90189528E0829FC001112424
:1005F0008160E0E0F2E081A382E880A30895CF93D8
:10060000DF93C82FD62F66235CF4603811F0D195A4
:1006100001C0DFE7C43051F0C63051F063E00DC0D7
:10062000843041F0863041F063E007C061E005C0EE
:1006300062E003C062E001C061E08C2F0E94EC0424
:100640006D2F660F8C2F0E941705DF91CF910895B3
:10065000CF93DF93CDB7DEB72897CDBFDEBF0E9423
:100660000D020E9420020E9400050E947102A0EA71
:10067000B6E088E311968C931197E0E8F6E027E066
:10068000218380898064808B81898064818B8289C9
:100690008064828BE0E0FAE031E030838FEF9FE00E
:1006A00086A397A3368383E78183E0EAF0E0828123
:1006B0008160828378941092082010920920109211
:1006C0000A2010920B208FEF80930C2010920D20A7
:1006D00080930E2010920F20109210201092112063
:1006E00010921220109213201092142010921520B4
:1006F00010921620809317208093182010921920B2
:1007000080931A2010921B2080931C2010921D2091
:1007100010921E2010921F2011962C931197EAEC34
:10072000F1E08591949115968C9300E0B12CA12C69
:100730001FEFDD24DA940F2EE12CFAE0FF2EF02DCE
:100740000F2EF3E78F2EF02D0F2EF0E86F2EF6E030
:100750007F2EF02D0F2EF7E09F2EF02DCC24C3948A
:1007600010C01C2D0EC01C2D0CC012E00AC013E0DE
:1007700008C0A12C1D2D05C0A12C1D2D02C0A12C2F
:100780001D2D80910520882309F499C088E290E20C
:100790000E9465058823A9F388E290E20E946D0516
:1007A0001F3F09F043C0082F007F0F2EFFE0BF2E30
:1007B000F02DB8220034B9F481E0B81691F2E2E0ED
:1007C000BE1689F2F3E0BF1681F28EE0B81204C0C3
:1007D0008C2D0E942A05D5CFEFE0BE12D2CF80E04B
:1007E0000E942A05CECF01110BC010920520C092A5
:1007F0000020F7E0FB1528F28B2D0E94F402C1CFF8
:10080000003509F0BECF8FE0B81205C0F7011182A4
:10081000F3019682B6CFFEE0BF1203C0F7018182DA
:10082000B0CFF7E0FB1508F0A2CFABCFE4E0F0E0EB
:10083000EC0FFD1FEA0DF11D8083115011F0A39400
:10084000A0CF003411F581E0B81207C06C8184E0BC
:100850000E94FF02A12C1D2D94CFE2E0BE1207C022
:100860006C8186E00E94FF02A12C1D2D8ACFF3E04F
:10087000BF127FCF6C8184E00E94FF026D8186E011
:100880000E94FF02A12C1D2D7CCF003509F074CFF2
:1008900087E08B1508F473CF2B2D30E08C81F901A4
:1008A000EE0FFF1F2E0F3F1FF901E85FFF4D808302
:1008B0008D8181838E818283A12C1D2D62CFFFCFFC
:1008C0001F920F920FB60F9211240BB60F922F9317
:1008D0003F934F935F936F937F938F939F93AF93C8
:1008E000BF93EF93FF9388E290E20E947905FF9116
:1008F000EF91BF91AF919F918F917F916F915F9198
:100900004F913F912F910F900BBE0F900FBE0F9004
:100910001F9018951F920F920FB60F9211240BB6CD
:100920000F922F933F934F935F936F937F938F9388
:100930009F93AF93BF93EF93FF9388E290E20E945F
:100940008E05FF91EF91BF91AF919F918F917F9114
:100950006F915F914F913F912F910F900BBE0F9030
:100960000FBE0F901F9018951F920F920FB60F9207
:1009700011240BB60F922F933F934F935F936F9376
:100980007F938F939F93AF93BF93EF93FF93809148
:100990000020882371F0E0E0F2E064A175A1769573
:1009A0006795769567957695679588E290E20E94BF
:1009B0004905FF91EF91BF91AF919F918F917F91E9
:1009C0006F915F914F913F912F910F900BBE0F90C0
:1009D0000FBE0F901F90189523E030E0082E02C044
:1009E000220F331F0A94E2F7E0E8F6E0268370E076
:1009F0009B0102C0220F331F8A95E2F725830895D9
:100A000080EFE0E8F6E0818380E4E0E0F6E08183D7
:100A10008CE0E0E4F6E08183E0E0F8E081E08083D0
:100A200083EC81838FEF90E086A397A308956B3AC0
:100A300008F06AEA843031F470E0E0E0F8E066A79C
:100A400077A70895863029F470E0E0E0F8E064A725
:100A500075A70895882329F080E4E0E0F6E0858317
:100A6000089580E4E0E0F6E086830895FC01608369
:100A70007183428314861386168615860895FC01B9
:100A8000258596852F5F237081E0291301C080E0C2
:100A900008951F93CF93DF93EC01162F0E943F051B
:100AA000882379F09D85FE01E90FF11D17839F5F73
:100AB00093709D87E881F98193819C7F2A81922B95
:100AC0009383DF91CF911F910895FC012385948535
:100AD00081E0291301C080E00895FC018485DF01D5
:100AE000A80FB11D13968C9194859F5F9370948786
:100AF0000895FC0183858F5F83709485A081B18107
:100B00002C91891749F09385DF01A90FB11D139628
:100B10002C93838781E0089580E00895FC01868509
:100B20009585981307C00190F081E02D83818C7F1B
:100B3000838308958685DF01A80FB11D17968C91D8
:100B4000A081B1818C9386858F5F8370868708959D
:100B5000A1E21A2EAA1BBB1BFD010DC0AA1FBB1FC1
:100B6000EE1FFF1FA217B307E407F50720F0A21B33
:100B7000B30BE40BF50B661F771F881F991F1A94A0
:100B800069F760957095809590959B01AC01BD01CA
:080B9000CF010895F894FFCF96
:060B9800018025000001B0
:00000001FF
