:100000000C94EC050C94FE050C94FE050C94FE0576
:100010000C94FE050C94FE050C94FE050C94FE0554
:100020000C94FE050C94FE050C94FE050C94FE0544
:100030000C94FE050C94FE050C94FE050C94FE0534
:100040000C94FE050C94FE050C94FE050C94FE0524
:100050000C94FE050C94FE050C94FE050C94FE0514
:100060000C94FE050C94FE050C94FE050C94FE0504
:100070000C94FE050C94FE050C94FE050C94FE05F4
:100080000C94FE050C94FE050C94FE050C94FE05E4
:100090000C94FE050C94FE050C94FE050C94FE05D4
:1000A0000C94FE050C94FE050C94FE050C94FE05C4
:1000B0000C94FE050C94FE050C94FE050C948E0920
:1000C0000C94FE050C94FE050C94FE050C94FE05A4
:1000D0000C94FE050C94FE050C94FE050C94FE0594
:1000E0000C94FE050C94FE050C94FE050C94FE0584
:1000F0000C94FE050C94FE050C94FE050C94FE0574
:100100000C94FE050C94FE050C94FE050C94FE0563
:100110000C94FE050C94FE050C94FE050C946609E7
:100120000C94FE050C94FE050C94FE050C94FE0543
:100130000C94FE050C948F0C0C94FE050C94FE059B
:100140000C94FE050C94FE050C94FE050C94FE0523
:100150000C94FE050C94FE050C94FE050C94FE0513
:100160000C9412090C943C090C94FE050C94FE05A9
:100170000C94FE050C94FE050C94FE050C94FE05F3
:100180000C94FE050C94FE050C94FE050C94FE05E3
:100190000C94FE050C94FE050C94FE050C94FE05D3
:1001A0000C94FE050C94FE050C94FE050C94FE05C3
:1001B0000C94FE050C94FE050C94FE050C94FE05B3
:1001C0000C94FE050C94FE05002010300828183809
:1001D0000000010001000100010001000100010018
:1001E0000100010001000100020002000200020003
:1001F00002000200020002000200020002000200EF
:1002000002000200020002000300030003000300DA
:1002100003000300030003000300030004000400C4
:1002200004000400040004000400040005000500AC
:100230000500050005000500060006000600060092
:100240000600070007000700070007000800080075
:10025000080009000900090009000A000A000A0054
:100260000B000B000B000C000C000D000D000D002E
:100270000E000E000F000F00100010001100110002
:1002800012001300130014001500150016001700CB
:100290001700180019001A001B001B001C001D008D
:1002A0001E001F002000210023002400250026003E
:1002B000270029002A002B002D002E0030003100DD
:1002C00033003500360038003A003C003E00400064
:1002D00042004400470049004B004E0050005300CC
:1002E000560059005B005F006200650068006C000A
:1002F0006F00730077007B007F00830087008C0015
:10030000900095009A009F00A400AA00AF00B500DD
:10031000BB00C100C800CE00D500DC00E300EB004C
:10032000F200FA0003010B0114011D012701300145
:100330003A01450150015B01660172017E018B01AA
:100340009801A501B301C201D001E001F001000252
:1003500011022202340247025A026E0283029802FC
:10036000AE02C402DC02F4020D03270341035D0365
:1003700079039703B503D403F503160439045C0429
:100380008104A704CF04F70421054D057A05A805CB
:10039000D80509063C067106A706DF061A075607A8
:1003A0009407D40716085A08A108EA0835098309F2
:1003B000D309260A7C0AD50A300B8F0BF10B560C99
:1003C000BE0C2A0D990D0C0E830EFD0E7C0FFF0F37
:1003D0000001020305060704000017252E363C41E4
:1003E00046494D505356585B5D5F6162646667696C
:1003F0006A6C6D6E6F7172737475767778797A7BCB
:100400007B7C7D7E7F7F80818182838484858586DD
:100410008787888889898A8B8B8C8C8D8D8E8E8F2F
:100420008F909090919192929393939494959595A7
:1004300096969797979898989999999A9A9A9B9B34
:100440009B9C9C9C9D9D9D9E9E9E9E9F9F9FA0A0D1
:10045000A0A0A1A1A1A1A2A2A2A3A3A3A3A4A4A47A
:10046000A4A5A5A5A5A6A6A6A6A6A7A7A7A7A8A82A
:10047000A8A8A8A9A9A9A9AAAAAAAAAAABABABABE2
:10048000ABACACACACACADADADADADADAEAEAEAE9F
:10049000AEAFAFAFAFAFAFB0B0B0B0B0B1B1B1B160
:1004A000B1B1B2B2B2B2B2B2B3B3B3B3B3B3B3B425
:1004B000B4B4B4B4B4B5B5B5B5B5B5B5B6B6B6B6ED
:1004C000B6B6B6B7B7B7B7B7B7B7B8B8B8B8B8B8B9
:1004D000B8B9B9B9B9B9B9B9B9BABABABABABABA86
:1004E000BABBBBBBBBBBBBBBBBBCBCBCBCBCBCBC56
:1004F000BCBDBDBDBDBDBDBDBDBEBEBEBEBEBEBE26
:10050000BEBEBFBFBFBFBFBFBFBFBFC0C0C0C0C0F8
:10051000C0C0C0C0C1C1C1C1C1C1C1C1C1C1C2C2CD
:10052000C2C2C2C2C2C2C2C2C3C3C3C3C3C3C3C3A3
:10053000C3C3C4C4C4C4C4C4C4C4C4C4C4C5C5C57A
:10054000C5C5C5C5C5C5C5C6C6C6C6C6C6C6C6C652
:10055000C6C6C7C7C7C7C7C7C7C7C7C7C7C7C8C82B
:10056000C8C8C8C8C8C8C8C8C8C8C9C9C9C9C9C905
:10057000C9C9C9C9C9C9CACACACACACACACACACAE1
:10058000CACACACBCBCBCBCBCBCBCBCBCBCBCBCCBD
:10059000CCCCCCCCCCCCCCCCCCCCCCCCCCCDCDCD98
:1005A000CDCDCDCDCDCDCDCDCDCDCECECECECECE75
:1005B000CECECECECECECECECECFCFCFCFCFCFCF54
:1005C000CFCFCFCFCFCFCFD0D0D0D0D0D0D0D0D032
:1005D000D0D0D0D0D0D0D1D1D1D1D1D1D1D1D1D111
:1005E000D1D1D1D1D1D1D2D2D2D2D2D2D2D2D2D2F1
:1005F000D2D2D2D2D2D2D3D3D3D3D3D3D3D3D3D3D1
:10060000D3D3D3D3D3D3D4D4D4D4D4D4D4D4D4D4B0
:10061000D4D4D4D4D4D4D4D5D5D5D5D5D5D5D5D591
:10062000D5D5D5D5D5D5D5D5D6D6D6D6D6D6D6D672
:10063000D6D6D6D6D6D6D6D6D6D6D7D7D7D7D7D754
:10064000D7D7D7D7D7D7D7D7D7D7D7D7D7D8D8D837
:10065000D8D8D8D8D8D8D8D8D8D8D8D8D8D8D8D81A
:10066000D9D9D9D9D9D9D9D9D9D9D9D9D9D9D9D9FA
:10067000D9D9D9D9DADADADADADADADADADADADADE
:10068000DADADADADADADADADBDBDBDBDBDBDBDBC2
:10069000DBDBDBDBDBDBDBDBDBDBDBDBDBDCDCDCA7
:1006A000DCDCDCDCDCDCDCDCDCDCDCDCDCDCDCDC8A
:1006B000DCDCDDDDDDDDDDDDDDDDDDDDDDDDDDDD6C
:1006C000DDDDDDDDDDDDDDDDDEDEDEDEDEDEDEDE52
:1006D000DEDEDEDEDEDEDEDEDEDEDEDEDEDEDEDF39
:1006E000DFDFDFDFDFDFDFDFDFDFDFDFDFDFDFDF1A
:1006F000DFDFDFDFDFDFDFE0E0E0E0E0E0E0E0E001
:10070000E0E0E0E0E0E0E0E0E0E0E0E0E0E0E0E1E8
:10071000E1E1E1E1E1E1E1E1E1E1E1E1E1E1E1E1C9
:10072000E1E1E1E1E1E1E1E1E2E2E2E2E2E2E2E2B1
:10073000E2E2E2E2E2E2E2E2E2E2E2E2E2E2E2E299
:10074000E2E2E3E3E3E3E3E3E3E3E3E3E3E3E3E37B
:10075000E3E3E3E3E3E3E3E3E3E3E3E3E4E4E4E465
:10076000E4E4E4E4E4E4E4E4E4E4E4E4E4E4E4E449
:10077000E4E4E4E4E4E4E4E5E5E5E5E5E5E5E5E530
:10078000E5E5E5E5E5E5E5E5E5E5E5E5E5E5E5E519
:10079000E5E5E5E5E6E6E6E6E6E6E6E6E6E6E6E6FD
:1007A000E6E6E6E6E6E6E6E6E6E6E6E6E6E6E6E6E9
:1007B000E7E7E7E7E7E7E7E7E7E7E7E7E7E7E7E7C9
:1007C000E7E7E7E7E7E7E7E7E7E7E7E7E7E7E8E8B7
:1007D000E8E8E8E8E8E8E8E8E8E8E8E8E8E8E8E899
:1007E000E8E8E8E8E8E8E8E8E8E8E8E8E8E9E9E986
:1007F000E9E9E9E9E9E9E9E9E9E9E9E9E9E9E9E969
:10080000E9E9E9E9E9E9E9E9E9E9E9E9E9EAEAEA55
:10081000EAEAEAEAEAEAEAEAEAEAEAEAEAEAEAEA38
:10082000EAEAEAEAEAEAEAEAEAEAEAEAEAEBEBEB25
:10083000EBEBEBEBEBEBEBEBEBEBEBEBEBEBEBEB08
:10084000EBEBEBEBEBEBEBEBEBEBEBEBEBEBEBECF7
:10085000ECECECECECECECECECECECECECECECECD8
:10086000ECECECECECECECECECECECECECECECECC8
:10087000ECECEDEDEDEDEDEDEDEDEDEDEDEDEDEDAA
:10088000EDEDEDEDEDEDEDEDEDEDEDEDEDEDEDED98
:10089000EDEDEDEDEDEDEEEEEEEEEEEEEEEEEEEE7E
:1008A000EEEEEEEEEEEEEEEEEEEEEEEEEEEEEEEE68
:1008B000EEEEEEEEEEEEEEEEEEEEEFEFEFEFEFEF52
:1008C000EFEFEFEFEFEFEFEFEFEFEFEFEFEFEFEF38
:1008D000EFEFEFEFEFEFEFEFEFEFEFEFEFEFEFEF28
:1008E000F0F0F0F0F0F0F0F0F0F0F0F0F0F0F0F008
:1008F000F0F0F0F0F0F0F0F0F0F0F0F0F0F0F0F0F8
:10090000F0F0F0F0F0F0F0F1F1F1F1F1F1F1F1F1DE
:10091000F1F1F1F1F1F1F1F1F1F1F1F1F1F1F1F1C7
:10092000F1F1F1F1F1F1F1F1F1F1F1F1F1F1F1F1B7
:10093000F2F2F2F2F2F2F2F2F2F2F2F2F2F2F2F297
:10094000F2F2F2F2F2F2F2F2F2F2F2F2F2F2F2F287
:10095000F2F2F2F2F2F2F2F2F2F3F3F3F3F3F3F370
:10096000F3F3F3F3F3F3F3F3F3F3F3F3F3F3F3F357
:10097000F3F3F3F3F3F3F3F3F3F3F3F3F3F3F3F347
:10098000F3F3F3F3F4F4F4F4F4F4F4F4F4F4F4F42B
:10099000F4F4F4F4F4F4F4F4F4F4F4F4F4F4F4F417
:1009A000F4F4F4F4F4F4F4F4F4F4F4F4F4F4F4F407
:1009B000F5F5F5F5F5F5F5F5F5F5F5F5F5F5F5F5E7
:1009C000F5F5F5F5F5F5F5F5F5F5F5F5F5F5F5F5D7
:1009D000F5F5F5F5F5F5F5F5F5F5F5F5F5F6F6F6C4
:1009E000F6F6F6F6F6F6F6F6F6F6F6F6F6F6F6F6A7
:1009F000F6F6F6F6F6F6F6F6F6F6F6F6F6F6F6F697
:100A0000F6F6F6F6F6F6F6F6F6F6F6F6F7F7F7F782
:100A1000F7F7F7F7F7F7F7F7F7F7F7F7F7F7F7F766
:100A2000F7F7F7F7F7F7F7F7F7F7F7F7F7F7F7F756
:100A3000F7F7F7F7F7F7F7F7F7F7F7F7F8F8F8F842
:100A4000F8F8F8F8F8F8F8F8F8F8F8F8F8F8F8F826
:100A5000F8F8F8F8F8F8F8F8F8F8F8F8F8F8F8F816
:100A6000F8F8F8F8F8F8F8F8F8F8F8F8F8F8F9F904
:100A7000F9F9F9F9F9F9F9F9F9F9F9F9F9F9F9F9E6
:100A8000F9F9F9F9F9F9F9F9F9F9F9F9F9F9F9F9D6
:100A9000F9F9F9F9F9F9F9F9F9F9F9F9F9F9F9F9C6
:100AA000F9FAFAFAFAFAFAFAFAFAFAFAFAFAFAFAA7
:100AB000FAFAFAFAFAFAFAFAFAFAFAFAFAFAFAFA96
:100AC000FAFAFAFAFAFAFAFAFAFAFAFAFAFAFAFA86
:100AD000FAFAFAFAFAFAFBFBFBFBFBFBFBFBFBFB6C
:100AE000FBFBFBFBFBFBFBFBFBFBFBFBFBFBFBFB56
:100AF000FBFBFBFBFBFBFBFBFBFBFBFBFBFBFBFB46
:100B0000FBFBFBFBFBFBFBFBFBFBFBFBFCFCFCFC31
:100B1000FCFCFCFCFCFCFCFCFCFCFCFCFCFCFCFC15
:100B2000FCFCFCFCFCFCFCFCFCFCFCFCFCFCFCFC05
:100B3000FCFCFCFCFCFCFCFCFCFCFCFCFCFCFCFCF5
:100B4000FCFCFCFCFDFDFDFDFDFDFDFDFDFDFDFDD9
:100B5000FDFDFDFDFDFDFDFDFDFDFDFDFDFDFDFDC5
:100B6000FDFDFDFDFDFDFDFDFDFDFDFDFDFDFDFDB5
:100B7000FDFDFDFDFDFDFDFDFDFDFDFDFDFDFEFEA3
:100B8000FEFEFEFEFEFEFEFEFEFEFEFEFEFEFEFE85
:100B9000FEFEFEFEFEFEFEFEFEFEFEFEFEFEFEFE75
:100BA000FEFEFEFEFEFEFEFEFEFEFEFEFEFEFEFE65
:100BB000FEFEFEFEFEFEFEFEFEFFFFFFFFFFFFFF4E
:100BC000FFFFFFFFFFFFFFFFFFFFFFFFFFFFFFFF35
:100BD000FFFFFFFFFFFFFFFF11241FBECFEFDFE28C
:100BE000DEBFCDBF20E2A0E0B0E201C01D92AB3479
:100BF000B207E1F70E9475060C94C10E0C94000038
:100C0000E0E5F0E0808182608083818181FFFDCF1B
:100C100088ED84BF81E080934000E0E5F0E08081D2
:100C20008E7F80830895E0E6F6E088E0818384E0AB
:100C3000828341E060EA79E08FE190E20E94DB0B81
:100C4000E0911F20F091202083E0858383818F7CB9
:100C500080618383A0EAB9E083E316968C931697AC
:100C600017961C9284818061848384818860848348
:100C7000089588E3E0EAF6E0818387E0E0E8F6E0C3
:100C80008183E0E0FAE083E781838FEF9FE086A332
:100C900097A381E086830895CF93DF93C82FD62F43
:100CA00066235CF4603811F0D19501C0DFE7C430F1
:100CB00051F0C63051F063E00DC0843041F0863011
:100CC00041F063E007C061E005C062E003C062E09C
:100CD00001C061E08C2F0E94910B6D2F660F8C2F4D
:100CE0000E94BC0BDF91CF910895CF93DF93CDB7D6
:100CF000DEB76597CDBFDEBF0E9400060E941306D7
:100D00000E94A50B0E94660A0E943906E0E0FAE004
:100D100010A211A211E01083E0EAF0E0828181606C
:100D2000828378948FEF809307201092082010928E
:100D3000092080930A2080930B2080930C209FE74A
:100D400090930D2090930E2010920F20109210205F
:100D500010921120809312201092132010921420D0
:100D60001092152010921620109217201092182021
:100D70001092192010921A2010921B2010921C2001
:100D800010921D2010921E2081E00E94CF0B81E066
:100D90000E94CF0B60E084E00E944C0660E086E099
:100DA0000E944C06E0E6F6E082EF81831283E0E8E1
:100DB000F6E088E0818385830E94500C84E00E94E5
:100DC0004D0C1D8A1B8A1C8A2FEF2A8B00E40F2EE4
:100DD000F0E62F2EF6E03F2EF02D10E6198B17C00F
:100DE00081E08A8B14C091E09A8B11C0E2E0EA8B1B
:100DF0000EC0F3E0FA8B0BC01C8A2FEF2A8B07C0C2
:100E00001C8A8FEF8A8B03C01C8A9FEF9A8B0093FA
:100E1000A1060093A6062989F101268315820E9466
:100E20005F0C0E94850C892BE1F30E94850C6C01FC
:100E30000E948A0CF101168315830E945F0C0E94A8
:100E4000850C892BE1F30E94850C7C010E948A0CA1
:100E5000F101168320E425830E945F0C0E94850C1B
:100E6000892BE1F30E94850C3C010E948A0CB6019B
:100E700080E090E00E945F0D4B015C01B70180E0D3
:100E800090E00E945F0D6B017C01B30180E090E077
:100E90000E945F0D69877A878B879C8728E43EEAEA
:100EA00046EC5DE3C501B4010E94150E2B013C0127
:100EB00027E536E34DE75DEBC701B6010E94150E4D
:100EC0009B01AC01C301B2010E94C60C2B013C0185
:100ED00025E53EEF40E15CEB69857A858B859C8555
:100EE0000E94150E9B01AC01C301B2010E94C60C09
:100EF0000E94780E6D877E878F87988B22E33FEB69
:100F000044E05DEBC501B4010E94150E2B013C01CC
:100F100021EE3BE44BEA5EE3C701B6010E94150EE9
:100F20009B01AC01C301B2010E94C60C2B013C0124
:100F300024EE38E94EE45EEB69857A858B859C85E5
:100F40000E94150E9B01AC01C301B2010E94C60CA8
:100F50000E94780E2B013C0121E430EA4EE25DEB69
:100F6000C501B4010E94150E4B015C012CE336E271
:100F70004CE25EEBC701B6010E94150E9B01AC016D
:100F8000C501B4010E94C60C6B017C0121EB34EB5E
:100F900041EC5EE369857A858B859C850E94150E00
:100FA0009B01AC01C701B6010E94C60C0E94780EDD
:100FB0006B017C0120E030E04FE753E46D857E85D6
:100FC0008F8598890E94110E18169CF020E030E061
:100FD000A9016D857E858F8598890E942A0D8823B9
:100FE0005CF06D857E858F8598890E942E0DA62EDA
:100FF00004C0AA24AA9401C0A12C20E030E04FE74D
:1010000053E4C301B2010E94110E18167CF020E0D7
:1010100030E0A901C301B2010E942A0D88234CF0DF
:10102000C301B2010E942E0DB62E04C0BB24BA9497
:1010300001C0B12C20E030E04FE753E4C701B60116
:101040000E94110E181674F020E030E0A901C701CB
:10105000B6010E942A0D88233CF0C701B6010E9408
:101060002E0D03C06FEF01C060E0EAE0F0E2A08265
:10107000EBE0F0E2B082ECE0F0E260830E94E80A8C
:101080008111C5CE80E090E00E94760A8FE190E267
:101090000E940A0C882309F4BACE8FE190E20E94E4
:1010A000120CFA89FF3F09F068C0282F207F2D8B92
:1010B0008F708B8B2034B9F4813009F491CE82305B
:1010C00009F491CE833009F491CE8E3021F481E081
:1010D0000E94CF0B9CCE8B898F3009F098CE80E098
:1010E0000E94CF0B94CE9D89911113C0EB89E830FB
:1010F00030F440E061E08E2F0E949B0A88CEFB898D
:10110000FF3009F084CE40E068E080E00E949B0A56
:101110007ECE2D89203191F48B89883028F441E0EE
:1011200061E00E949B0A73CE9B899F3009F06FCECD
:1011300041E068E080E00E949B0A69CEED89E035DD
:1011400009F065CEFB89FF3039F4E0E0FAE0108267
:1011500087E0809386065BCEFB89FE3049F41092CF
:10116000200A1092210A21E0E0E0FAE020834FCE2D
:101170008B89883008F43DCE4ACEE4E0F0E0EC0FF5
:10118000FD1F9C89E90FF11D8083EA89E150EA8BFC
:10119000EE2319F09F5F9C8B3ACEFD89F03431F538
:1011A0002B89213041F46C8184E00E944C061C8A1A
:1011B0008FEF8A8B2CCE9B89923041F46C8186E034
:1011C0000E944C061C8AEFEFEA8B21CEFB89F3309C
:1011D00009F012CE6C8184E00E944C066D8186E09D
:1011E0000E944C061C8A2FEF2A8B11CE8D898035E8
:1011F00009F006CE9B89983008F006CE892F90E042
:101200004C819C01220F331F820F931FFC01E95F69
:10121000FF4D40838D8181838E8182831C8AEFEF15
:10122000EA8BF5CD1F920F920FB60F9211240BB6D9
:101230000F922F933F934F935F936F937F938F936F
:101240009F93AF93BF93EF93FF938FE190E20E9440
:101250001E0CFF91EF91BF91AF919F918F917F9164
:101260006F915F914F913F912F910F900BBE0F9017
:101270000FBE0F901F9018951F920F920FB60F92EE
:1012800011240BB60F922F933F934F935F936F935D
:101290007F938F939F93AF93BF93EF93FF938FE1D0
:1012A00090E20E94330CFF91EF91BF91AF919F911B
:1012B0008F917F916F915F914F913F912F910F90FF
:1012C0000BBE0F900FBE0F901F9018951F920F929C
:1012D0000FB60F9211240BB60F922F933F934F939B
:1012E0005F936F937F938F939F93AF93BF93EF938E
:1012F000FF930E94EF0AFF91EF91BF91AF919F91F1
:101300008F917F916F915F914F913F912F910F90AE
:101310000BBE0F900FBE0F901F9018951F920F924B
:101320000FB60F9211240BB60F922F933F938F930A
:101330009F93AF93BF93EF93FF93809100208630EC
:1013400020F48F5F80930020A2C010920020E0E084
:10135000FAE083E08183A0E8B6E087E016968C93FC
:1013600016971082108216968C93A0EAB6E088E356
:1013700016968C9316978091012090E0FC01E8531B
:10138000FE4F2591349115962C93FC01EE0FFF1F13
:10139000E80FF91FE95FFF4DE081F0E0EE0FFF1F5E
:1013A000E053FE4F25913491232BB1F0FC01EE0F59
:1013B000FF1FE80FF91FE95FFF4DE081F0E0EE0F3E
:1013C000FF1FE053FE4F25913491E0E0FAE024A79F
:1013D00035A7218120642183FC01EE0FFF1FE80F58
:1013E000F91FE95FFF4DE281F0E0EE0FFF1FE053D0
:1013F000FE4F25913491232BB1F0FC01EE0FFF1F1E
:10140000E80FF91FE95FFF4DE281F0E0EE0FFF1FEB
:10141000E053FE4F25913491E0E0FAE022A733A794
:10142000218120622183FC01EE0FFF1FE80FF91FCD
:10143000E95FFF4DE181F0E0EE0FFF1FE053FE4F4B
:1014400025913491232BB9F0FC01EE0FFF1F8E0F75
:101450009F1FFC01E95FFF4DE181F0E0EE0FFF1FF0
:10146000E053FE4F85919491E0E0FAE080A791A7C8
:10147000818180618183E0E0FAE010A211A281E025
:101480008083809101208F5F877080930120FF917E
:10149000EF91BF91AF919F918F913F912F910F90BD
:1014A0000BBE0F900FBE0F901F901895E0E0F2E07A
:1014B00081E0808390E1918397E09483128282A3FC
:1014C000089587E0E0EAF6E0818308950E94560AD5
:1014D0000E94610A089528E0829FC0011124816062
:1014E000E0E0F2E081A382E880A30895A0EAB6E0FC
:1014F00097E016969C931697E82FF0E0E053FC4F88
:101500008591949115968C930895CF93C82F662357
:1015100019F00E94760A09C0282F30E02F5F3F4F54
:10152000C901877090780E94760A8C2F885F0E948C
:101530006B0ACF910895CF93DF93C82FD62F6130D8
:10154000E9F4442391F083E080933E20109203203D
:101550002C2F30E02F5F3F4FC901877090780E9499
:10156000760A80E18093022028C081E080933E20AB
:10157000809302208C2F0E94760A1FC06230E8F010
:10158000442399F084E080933E20109203202C2F76
:1015900030E02F5F3F4FC901877090780E94760A34
:1015A000D295D07FD093022008C082E080933E2065
:1015B0008C2F0E94760AD093022010924720C0936D
:1015C0004A208C2F885F0E946B0ADF91CF9108958B
:1015D0009091022081E0911101C080E008958091F6
:1015E000022081508093022080913E20823021F0A1
:1015F00080913E208130F1F4E0E0F2E064A175A139
:101600007695679576956795769567958FE190E2E3
:101610000E94EE0B80914A208F5F80934A20809138
:101620000220882309F47CC080914A2061E00E9456
:10163000850A089580913E20843029F080913E20D3
:10164000833009F06DC080910320882309F458C0CD
:10165000E0E0F2E024A135A180914820909149205A
:101660002817390738F4E0914720F0E0E15CFF4D9E
:10167000108215C0E0E0F2E004A0F5A1E02D809119
:10168000482090914920E81BF90BE852FC4F8591C6
:101690009491E0914720F0E0E15CFF4D80838091E0
:1016A00047208F5F883019F0809347201DC010922B
:1016B0004720EFE3F0E287E490E260E070E0219100
:1016C000620F711DE817F907D1F776956795769542
:1016D0006795769567958FE190E20E94EE0B809179
:1016E0004A208F5F80934A2010920320809102202D
:1016F0008823B1F080914A2060E00E94850A089515
:1017000081E080930320E0E0F2E084A195A1809342
:1017100048209093492080914A2061E00E94850AE8
:10172000089523E030E0082E02C0220F331F0A94F0
:10173000E2F7E0E8F6E0268370E09B0102C0220FAA
:10174000331F8A95E2F72583089580EFE0E8F6E0FD
:10175000818380E4E0E0F6E081838CE0E0E4F6E081
:101760008183E0E0F8E081E0808383EC81838FEF88
:1017700090E086A397A308956B3A08F06AEA843054
:1017800031F470E0E0E0F8E066A777A708958630CE
:1017900029F470E0E0E0F8E064A775A708958823D5
:1017A00029F080E4E0E0F6E08583089580E4E0E05D
:1017B000F6E086830895FC01608371834283148E72
:1017C000138E168E158E0895FC01258D968D2F5F34
:1017D000277081E0291301C080E008951F93CF9303
:1017E000DF93EC01162F0E94E40B882379F09D8D86
:1017F000FE01E90FF11D138B9F5F97709D8FE881AC
:10180000F98193819C7F2A81922B9383DF91CF91E1
:101810001F910895FC01238D948D81E0291301C04F
:1018200080E00895FC01848DDF01A80FB11D13969F
:101830008C91948D9F5F9F70948F0895FC01838D90
:101840008F5F8F70948DA081B1812C91891749F0A1
:10185000938DDF01A90FB11D13962C93838F81E027
:10186000089580E00895FC01868D958D981307C03A
:101870000190F081E02D83818C7F83830895868D94
:10188000DF01A80FB11D53968C91A081B1818C937B
:10189000868D8F5F8770868F0895809304200895CA
:1018A000E0E8F1E088E6808380ED8183E0E0FBE022
:1018B00088E0808389E2838380E181830895E0E08A
:1018C000FBE010A211A21092052010920620ECE07D
:1018D000FBE080818083ECE0F9E08081816080839F
:1018E000E0E0F9E08BED9BE080A391A382E08683AA
:1018F000A0EAB0E012968C911297826012968C93B7
:10190000809104208F7080830895809105209091AC
:1019100006200895109205201092062008951F9227
:101920000F920FB60F9211240BB60F922F933F9385
:101930008F939F93EF93FF93E0E0F9E08081807FA6
:10194000808380910C0B80FF07C08FEF9FEF809307
:101950000520909306200CC0E0E0FBE020AD31AD07
:10196000932F80E0820F911D809305209093062095
:10197000FF91EF919F918F913F912F910F900BBE0F
:101980000F900FBE0F901F9018955058BB27AA2795
:101990000ED00DC1FED030F003D120F031F49F3FC6
:1019A00011F41EF4F3C00EF4E095E7FBE9C0E92F53
:1019B0000FD180F3BA17620773078407950718F0F1
:1019C00071F49EF527C10EF4E0950B2EBA2FA02DD1
:1019D0000B01B90190010C01CA01A0011124FF27DC
:1019E000591B99F0593F50F4503E68F11A16F040D7
:1019F000A22F232F342F4427585FF3CF46953795D6
:101A00002795A795F0405395C9F77EF41F16BA0B9A
:101A1000620B730B840BBAF09150A1F0FF0FBB1F48
:101A2000661F771F881FC2F70EC0BA0F621F731F91
:101A3000841F48F4879577956795B795F7959E3FEE
:101A400008F0B3CF9395880F08F09927EE0F97957C
:101A50008795089571D008F481E0089504D06894C2
:101A6000B111D9C00895BCD088F09F5790F0B92F1C
:101A70009927B751A0F0D1F0660F771F881F991FE3
:101A80001AF0BA95C9F712C0B13081F0C3D0B1E0F5
:101A90000895C0C0672F782F8827B85F39F0B93F05
:101AA000CCF3869577956795B395D9F73EF49095E5
:101AB0008095709561957F4F8F4F9F4F0895E89463
:101AC00009C097FB3EF490958095709561957F4F86
:101AD0008F4F9F4F9923A9F0F92F96E9BB27939534
:101AE000F695879577956795B795F111F8CFFAF444
:101AF000BB0F11F460FF1BC06F5F7F4F8F4F9F4F75
:101B000016C0882311F096E911C0772321F09EE8D2
:101B1000872F762F05C0662371F096E8862F70E038
:101B200060E02AF09A95660F771F881FDAF7880F12
:101B30009695879597F90895990F0008550FAA0B68
:101B4000E0E8FEEF16161706E807F907C0F01216D0
:101B50001306E407F50798F0621B730B840B950BD3
:101B600039F40A2661F0232B242B252B21F4089528
:101B70000A2609F4A140A6958FEF811D811D0895C5
:101B800097F99F6780E870E060E008959FEF80EC30
:101B9000089500240A9416161706180609060895D3
:101BA00000240A9412161306140605060895092E39
:101BB0000394000C11F4882352F0BB0F40F4BF2BA8
:101BC00011F460FF04C06F5F7F4F8F4F9F4F0895E8
:101BD00057FD9058440F551F59F05F3F71F04795DE
:101BE000880F97FB991F61F09F3F79F087950895C3
:101BF000121613061406551FF2CF4695F1DF08C0E2
:101C0000161617061806991FF1CF869571056105FE
:101C100008940895E894BB2766277727CB0197F9A6
:101C200008958ADF08F48FEF08950BD0C0CFB1DF9D
:101C300028F0B6DF18F0952309F0A2CFA7CF112422
:101C4000EACFC6DFA0F3959FD1F3950F50E0551F63
:101C5000629FF001729FBB27F00DB11D639FAA2701
:101C6000F00DB11DAA1F649F6627B00DA11D661F50
:101C7000829F2227B00DA11D621F739FB00DA11D71
:101C8000621F839FA00D611D221F749F3327A00D2B
:101C9000611D231F849F600D211D822F762F6A2FC7
:101CA00011249F5750408AF0E1F088234AF0EE0F4C
:101CB000FF1FBB1F661F771F881F91505040A9F759
:101CC0009E3F510570F05CCFA6CF5F3FECF3983E8E
:101CD000DCF3869577956795B795F795E7959F5FC0
:101CE000C1F7FE2B880F911D9695879597F908955A
:101CF00077DFE0F09E37D8F09639B8F49E3848F494
:101D0000672F782F8827985FF9CF86957795679505
:101D100093959539D0F3B62FB1706B0F711D811D5E
:101D200020F4879577956795939502C01CC073CF73
:101D3000882371F4772321F09850872B762F07C0E2
:101D4000662311F499270DC09051862B70E060E056
:101D50002AF09A95660F771F881FDAF7880F9695F5
:101D6000879597F908959F3F31F0915020F487951A
:101D700077956795B795880F911D9695879597F9F3
:061D80000895F894FFCF66
:00000001FF
