:100000000AC050C018C017C016C06EC014C013C0BC
:1000100076C011C08CC011271FBFCFE5D0E0DEBF76
:10002000CDBF20E0A0E4B0E001C01D93A134B20731
:10003000E1F702D09BC0E4CF48ED4CBF48E046BF9B
:10004000029BFECF46E851E041505040E9F700C026
:1000500044E85EE157BD46BD42E04BBD43E04BBBCB
:1000600048E04DBB47BB41E045BB43BB46E441BF15
:100070004AB741604ABFE0E4F0E0F894408141FFB4
:1000800003C04AB7417F0AC0408140FF04C04AB75D
:10009000417F426003C04AB7417F44604ABF7894C1
:1000A0008895EBCF1F930F930FB70F9310E04F93EB
:1000B000EF93FF93029908C0E0E4F0E040814260D2
:1000C000408342E04DBD08C01DBD19BD18BDE0E430
:1000D000F0E040814D7F4083FF91EF914F910F9170
:1000E0000FBF0F911F9118951F930F930FB70F9389
:1000F00010E0089A0F910FBF0F911F9118951F9351
:100100000F930FB70F9310E04F93EF93FF93E0E43B
:10011000F0E04081416040834DB3406C4DBBFF91A6
:10012000EF914F910F910FBF0F911F9118951F9352
:100130000F930FB70F9310E04F93EF93FF9349B3D3
:100140004A3B10F4089A05C049B34E3B10F4119A8B
:10015000099AE0E4F0E040814E7F4083FF91EF9107
:100160004F910F910FBF0F911F911895F894FFCFEA
:00000001FF
